:050BA800120BADD2A10B
:100BAD007F01EFD394007480948040127E02EED3C7
:0F0BBD0094007480948040031E80F31F80E42214
:0F0C5400D2A0120BA8C2A0120BADC2A1020BAD11
:0A0C7900C2A0120BA8D2A0020BAD1E
:100ABE00AD07E4FBFAEBC3940874809480501AEDF2
:100ACE00C4131313540124FF92A0ED25E0FD120B65
:100ADE00A8C2A1120BAD0B80DCD2A0120BADD2A11D
:100AEE0030A0130AEAD394C87480948040F2C2A155
:0E0AFE00120BAD7F0022C2A1120BAD7F0122B0
:100B5000E4FDFCD2A0120BADEDC394087480948028
:100B6000501AD2A1120BADEC25E0FCA2A0E4334256
:0F0B700004120BADC2A1120BAD0D80DCAF04223D
:100C0800AC05A907120C547FA0120ABEAF01120A44
:090C1800BEAF04120ABE020C7901
:100BCC00AC07120C547FA0120ABEAF04120ABE125C
:100BDC000C547FA1120ABE120B50AD07120C79AF48
:020BEC000522E0
:0B0C6E003F065B4F666D7D077F6F4007
:100BEE00020A00000C0C00000000000000000000D3
:090BFE00000002080000011900CA
:080C2100AB077A007FE87E03B7
:0B0C2900EF1FAC0670011E4C70F6229D
:1006E0008E228F23752402AF24EF3395E0FEC3EFF3
:1006F000944DEE648094804003020840E52424FE7B
:10070000FF120BCC7527008F28120C25E52414FF4F
:10071000120BCC120C21AE27AF287C007DFF1203F8
:1007200076EF2BF526EA3EF525AF24120BCC752B80
:10073000008F2C120C25E52404FF120BCC120C2187
:10074000AE2BAF2C7C007DFF120376EF2BF52AEA4F
:100750003EF529E5242402FF120BCC752F008F30C3
:10076000120C25E5242403FF120BCC120C21AE2F12
:10077000AF307C007DFF120376EF2BF52EEA3EF5BD
:100780002DC3E52A9526FDE5299525FC12029A7BC5
:10079000CD7ACC79CC783E120116C004C005C006D3
:1007A000C007AC29AD2AEC12029AD003D002D001C6
:1007B000D000120021C004C005C006C007AC22ADA5
:1007C00023E412029AA804A905AA06AB07D007D011
:1007D00006D005D00412021C405FE52E952AFDE5E7
:1007E0002D9529FC12029A7B9A7A997919783F12F1
:1007F0000116C004C005C006C007AC29AD2AEC1222
:10080000029AD003D002D001D000120025C004C04B
:1008100005C006C007AC22AD23E412029AA804A9C1
:1008200005AA06AB07D007D006D005D00412021CDB
:100830005007E524A2E713FF22052405240206E75A
:030840007F002214
:0B0C6300D288D2A8D28AD2AAD2BA222C
:100C3400758951758C3C758AB0D2A9D2ABD2AF22DA
:100C4400EF64014E7005D28CD28E22C28CC28E22E9
:100A4A00E4FDEDC39408748094805067EDB4080007
:100A5A00504D900A63F8282873020A7B020A7F0223
:100A6A000A87020A8B020A93020A97020A9F020A5B
:100A7A00A3C2A28002D2A2C2A3C2A48022C2A2801E
:100A8A0002D2A2D2A3C2A48016C2A28002D2A2C259
:100A9A00A3D2A4800AC2A28002D2A2D2A3D2A474F0
:100AAA001A2DF8E6F5807F647E00120C29E4F580A1
:040ABA000D808F22FA
:1004B900120C63120C347F017E00120C44AF09E464
:1004C900FD120C080509E509700205087FD07E07B1
:1004D900120C29AF09E4FD120C080509E50970029F
:1004E90005087FD07E07120C29308E030206DAAF89
:1004F9008BEF250BF50BE4350AF50AAF8DEFFEE41A
:10050900250BF50BEE350AF50A850E0C850F0D85C1
:10051900100E85110F85121085131185141285157A
:1005290013F514850B15AC0EAD0FE412029A7BCDB1
:100539007ACC79CC783D120116C004C005C006C03A
:1005490007AC0CAD0DE412029A7BCD7ACC79CC784C
:100559003D120116D003D002D001D000120025C0EF
:1005690004C005C006C007AC10AD11E412029A7BA5
:10057900CD7ACC794C783E120116D003D002D00145
:10058900D000120025C004C005C006C007AC12ADDA
:1005990013E412029A7B9A7A997999783E12011694
:1005A900D003D002D001D000120025C004C005C07C
:1005B90006C007AC14AD15E412029A7B9A7A9979B0
:1005C90099783E120116D003D002D001D000120052
:1005D900251202D38E168F17E51745167028C2A566
:1005E9007FD07E07120C29D2A57F0A7E00120C2922
:1005F900900C78E493F521F520F51EF51DF51CF511
:100609001BF51A0206CBAE16AF17E4FCFD7BA07AE8
:10061900867901F8120B0CAC00AD01AE02AF03E410
:100629007B107A27F9F8120B0C746E2FF582740C73
:100639003EF583E493F51EAE16AF177C277D1012A5
:1006490003887E037FE8CFCDCFCECCCE120388744A
:100659006E2FF582740C3EF583E493F51DAE16AF4B
:10066900177C037DE81203887E007F64CFCDCFCE4F
:10067900CCCE120388746E2FF582740C3EF583E498
:1006890093F51CAE16AF177C007D641203887E00BB
:100699007F0ACFCDCFCECCCE120388746E2FF582D0
:1006A900740C3EF583E493F51BAE16AF177C007D01
:1006B9000A120388746E2DF582740C3CF583E49359
:1006C900F51AE4F50AF50BF58DF58B7F01FE120C91
:0706D90044120A4A0204F278
:03000300020921CE
:10092100C0E0C0F0C083C082C0D075D000C000C09C
:1009310001C002C003C004C005C006C007120C25D7
:1009410020B25FAF17AE161206E08F19E51975F0E8
:100951000A120354FF3395E0FE746E2FF582740C76
:100961003EF583E493F521E51975F00A120354AFBE
:10097100F0EF3395E0FE746E2FF582740C3EF58333
:10098100E493F520E4FFFE120C44C2A57FF40E129D
:100991000C29D2A57F0A7E00120C297F017E00124C
:1009A1000C44D007D006D005D004D003D002D0012A
:0D09B100D000D0D0D082D083D0F0D0E03282
:030013000208439D
:10084300C0E0C0F0C083C082C0D075D000C000C07B
:1008530001C002C003C004C005C006C0077FB87E44
:100863000B120C2930B303020903AE16AF177C0039
:100873007DFF120388AD07AF09120C080509E509CE
:10088300700205087FD07E07120C29AF09C007AE9E
:1008930016AF177C007DFF120388D007120C0805E2
:1008A30009E509700205087FD07E07120C29C2A54D
:1008B3007F887E13120C29D2A57F0A7E00120C2991
:1008C300E508C313FEE5091324FFFBEE34FFFA7CAE
:1008D300007D0AAF03FE120388746E2FF582740C39
:1008E3003EF583E493F5217C007D0AAF03AE02124B
:1008F3000388746E2DF582740C3CF583E493F52024
:10090300120C25D007D006D005D004D003D002D0D6
:0E09130001D000D0D0D082D083D0F0D0E0321E
:03000B00020B7F66
:100B7F00C0E0C0D075D000C006C007758C3C758A28
:100B8F00B00518E51864047007F518FFFE120C4441
:090B9F00D007D006D0D0D0E0321E
:03001B00020006DA
:0100060032C7
:10001E0002033FE86480F8E933E83360110460F0CE
:10002E00ED33EC337009E8FCE9FDEAFEEBFF220448
:10003E0060DED3EB9FEA9EE99DE8C2E78CF0C2F743
:10004E0095F0400CE8CCF8E9CDF9EACEFAEBCFFB0F
:10005E0012030A85D0F05804700320D5B3E804705B
:10006E00075002B2D502034992D5EC0460F7E4CCF6
:10007E00C0E0C398F8603B94186008400DD0E0FBD8
:10008E00020321E4FBFAC9FC8028E830E406E4C947
:10009E00FBE4CAFCE830E305E4C9CACBFCE854072C
:1000AE006010F8C3E913F9EA13FAEB13FBEC13FC37
:1000BE00D8F130F52FC3E49CFCEF9BFFEE9AFEEDDA
:1000CE0099FDD0E0FBEF4E4D4C701222DB03020384
:1000DE0046EC2CFCEF33FFEE33FEED33FDED30E757
:1000EE00EB020321EF2BFFEE3AFEED39FDD0E0FBE4
:1000FE0050130BBB0003020349ED13FDEE13FEEF8D
:08010E0013FFEC13FC020321B6
:10011600EC4D6011E8497017ED33EC3304600DE4E3
:10012600FCFFFEFD22E933E8330470F802033F12B8
:10013600030A58046009E4CC2481500628500902B9
:100146000349284003020346C0E0EB4A7044B980E5
:1001560006D0E0FB020335EF4E701CBD8008EBFFB6
:10016600EAFEE9FD80EBE98DF0A4FEE5F00201FF71
:10017600E9CDF9EAFEEBFFEF89F0A4FCE5F0CE89C4
:10018600F0A42EFFE435F0CD89F0A42DFEE435F081
:100196008067EF4E7005BD80D780C3EF8BF0A4ACAF
:1001A600F0EE8BF0A42CFCE435F0F8EF8AF0A42CEA
:1001B600E5F038FCE433CB8DF0A42CFCE5F03BF8FD
:1001C600EE8AF0A42CFCE5F038F8E433CF89F0A4ED
:1001D6002CFCE5F038CF3400CE89F0A42FFFE5F0F3
:1001E6003EFEE433C98DF0A42EFEE5F039CD8AF04B
:1001F600A42FFFE5F03EFEE43DFD33D0E0FB5007C3
:100206000BBB000F020349EC2CFCEF33FFEE33FE71
:06021600ED33FD0203219F
:10021C0074F8CC6480CCC86480C8F58204604FC389
:10022C00EB9FF5F0EA9E42F0E99D42F0E89C45F028
:10023C00603C501DE5825FFFE582D313CB5BCBF4B2
:10024C002B5582FB50280ABA002409B900200880DB
:10025C001DE5825BFBE582D313CF5FCFF4C3132F75
:10026C005582FF50090EBE00050DBD00010CC3EBFD
:10027C009FF5F0EA9E42F0E99D42F0E89C45F06063
:09028C0007CC4820E701B3EC2285
:1002950075F020800E75F010800575F0087D007EE4
:1002A500007F003392D530D5031203DDEC334010C7
:1002B500EF33FFEE33FEED33FDEC33FCD5F0ED22ED
:0E02C500E5F0247EA2D513CC92E7CDCEFF2229
:1002D300EDD2E7CD33EC3392D524814006E4FFFE23
:1002E300FDFC22FCE4CFCECDCC24E0501174FF8082
:1002F300EDC3CC13CCCD13CDCE13CECF13CF04701F
:07030300F030D5DE0203DD3E
:10030A00E9D2E7C933E833F892D5EDD2E7CD33EC39
:07031A0033FC5002B2D522B2
:10032100EC30E7100FBF000C0EBE00080DBD00043D
:100331000BEB6014A2D5EB13FCED92E7FD2274FFE9
:10034100FCFDFEFF22E480F8A2D574FF13FC7D8042
:03035100E480EF56
:030000000209BE34
:0C09BE00787FE4F6D8FD758130020A0550
:10035400C2D530F707B2D563F0FF05F030E70CB231
:10036400D5F4048463F0FF05F080018430D502F4F1
:02037400042261
:10037600EF8DF0A4A8F0CF8CF0A428CE8DF0A42E9B
:02038600FE2255
:10038800BC000BBE0029EF8DF084FFADF022E4CC59
:10039800F875F008EF2FFFEE33FEEC33FCEE9DEC22
:1003A800984005FCEE9DFE0FD5F0E9E4CEFD22ED68
:1003B800F8F5F0EE8420D21CFEADF075F008EF2FB2
:1003C800FFED33FD4007985006D5F0F222C398FDA3
:0503D8000FD5F0EA2240
:100B0C00C2D5E830E70FB2D5E4C39BFBE49AFAE414
:100B1C0099F9E498F8EC30E717B2D5120B421204AD
:100B2C0027E4C39BFBE49AFAE499F9E498F8800370
:100B3C0012042730D50DE4C39FFFE49EFEE49DFD17
:040B4C00E49CFC2207
:0E03DD00C3E49FFFE49EFEE49DFDE49CFC2231
:1009CA000204B9E493A3F8E493A34003F68001F286
:1009DA0008DFF48029E493A3F85407240CC8C3332E
:1009EA00C4540F4420C8834004F456800146F6DFFD
:1009FA00E4800B0102040810204080900BEEE47E94
:100A0A00019360BCA3FF543F30E509541FFEE493F1
:100A1A00A360010ECF54C025E060A840B8E493A3B8
:100A2A00FAE493A3F8E493A3C8C582C8CAC583CAE3
:100A3A00F0A3C8C582C8CAC583CADFE9DEE780BE9B
:010C070000EC
:1003EB0075F008758200EF2FFFEE33FECD33CDCCC9
:1003FB0033CCC58233C5829BED9AEC99E58298404C
:10040B000CF582EE9BFEED9AFDEC99FC0FD5F0D628
:10041B00E4CEFBE4CDFAE4CCF9A88222B800C1B952
:10042B000059BA002DEC8BF084CFCECDFCE5F0CB90
:10043B00F97818EF2FFFEE33FEED33FDEC33FCEBC9
:10044B0033FB10D703994004EB99FB0FD8E5E4F984
:10045B00FA227818EF2FFFEE33FEED33FDEC33FC71
:10046B00C933C910D7059BE99A4007EC9BFCE99A65
:10047B00F90FD8E0E4C9FAE4CCFB2275F010EF2FAA
:10048B00FFEE33FEED33FDCC33CCC833C810D707AA
:10049B009BEC9AE899400AED9BFDEC9AFCE899F8E5
:0E04AB000FD5F0DAE4CDFBE4CCFAE4C8F92278
:00000001FF
